{
  "_format": "hh-sol-artifact-1",
  "contractName": "Profiles",
  "sourceName": "contracts/profiles.sol",
  "abi": [
    {
      "anonymous": false,
      "inputs": [
        {
          "indexed": false,
          "internalType": "bytes32",
          "name": "profileID",
          "type": "bytes32"
        },
        {
          "indexed": false,
          "internalType": "bool",
          "name": "isDisabled",
          "type": "bool"
        }
      ],
      "name": "DisableProfile",
      "type": "event"
    },
    {
      "anonymous": false,
      "inputs": [
        {
          "indexed": false,
          "internalType": "bytes32",
          "name": "profileID",
          "type": "bytes32"
        },
        {
          "indexed": false,
          "internalType": "address",
          "name": "creatorAddress",
          "type": "address"
        },
        {
          "indexed": false,
          "internalType": "string",
          "name": "profileDataCID",
          "type": "string"
        },
        {
          "indexed": false,
          "internalType": "bool",
          "name": "isDisabled",
          "type": "bool"
        }
      ],
      "name": "NewProfileCreated",
      "type": "event"
    },
    {
      "inputs": [
        {
          "internalType": "string",
          "name": "profileDataCID",
          "type": "string"
        }
      ],
      "name": "createNewProfile",
      "outputs": [],
      "stateMutability": "nonpayable",
      "type": "function"
    },
    {
      "inputs": [
        {
          "internalType": "bytes32",
          "name": "profileId",
          "type": "bytes32"
        }
      ],
      "name": "disableProfile",
      "outputs": [],
      "stateMutability": "nonpayable",
      "type": "function"
    },
    {
      "inputs": [
        {
          "internalType": "bytes32",
          "name": "",
          "type": "bytes32"
        }
      ],
      "name": "idToProfile",
      "outputs": [
        {
          "internalType": "bytes32",
          "name": "profileID",
          "type": "bytes32"
        },
        {
          "internalType": "string",
          "name": "profileDataCID",
          "type": "string"
        },
        {
          "internalType": "address",
          "name": "profileOwner",
          "type": "address"
        },
        {
          "internalType": "bool",
          "name": "isDisabled",
          "type": "bool"
        }
      ],
      "stateMutability": "view",
      "type": "function"
    }
  ],
  "bytecode": "0x608060405234801561001057600080fd5b50610a54806100206000396000f3fe608060405234801561001057600080fd5b50600436106100415760003560e01c80632b3b47e7146100465780637014b78114610079578063b73464fe14610095575b600080fd5b610060600480360381019061005b91906105fb565b6100b1565b604051610070949392919061072c565b60405180910390f35b610093600480360381019061008e91906105fb565b610196565b005b6100af60048036038101906100aa91906107dd565b610385565b005b60006020528060005260406000206000915090508060000154908060010180546100da90610859565b80601f016020809104026020016040519081016040528092919081815260200182805461010690610859565b80156101535780601f1061012857610100808354040283529160200191610153565b820191906000526020600020905b81548152906001019060200180831161013657829003601f168201915b5050505050908060020160009054906101000a900473ffffffffffffffffffffffffffffffffffffffff16908060020160149054906101000a900460ff16905084565b6000806000838152602001908152602001600020604051806080016040529081600082015481526020016001820180546101cf90610859565b80601f01602080910402602001604051908101604052809291908181526020018280546101fb90610859565b80156102485780601f1061021d57610100808354040283529160200191610248565b820191906000526020600020905b81548152906001019060200180831161022b57829003601f168201915b505050505081526020016002820160009054906101000a900473ffffffffffffffffffffffffffffffffffffffff1673ffffffffffffffffffffffffffffffffffffffff1673ffffffffffffffffffffffffffffffffffffffff1681526020016002820160149054906101000a900460ff1615151515815250509050806040015173ffffffffffffffffffffffffffffffffffffffff163373ffffffffffffffffffffffffffffffffffffffff1614610336576040517f08c379a000000000000000000000000000000000000000000000000000000000815260040161032d906108d7565b60405180910390fd5b60018160600190151590811515815250507f2fb318fd228ce7934218604c4a9e3c71370996da6539e64dab13eecd5d714ab38260016040516103799291906108f7565b60405180910390a15050565b6000333060405160200161039a929190610968565b604051602081830303815290604052805190602001209050604051806080016040528082815260200184848080601f016020809104026020016040519081016040528093929190818152602001838380828437600081840152601f19601f8201169050808301925050505050505081526020013373ffffffffffffffffffffffffffffffffffffffff16815260200160001515815250600080838152602001908152602001600020600082015181600001556020820151816001019080519060200190610468929190610518565b5060408201518160020160006101000a81548173ffffffffffffffffffffffffffffffffffffffff021916908373ffffffffffffffffffffffffffffffffffffffff16021790555060608201518160020160146101000a81548160ff0219169083151502179055509050507ff0716c4cc033a80c70e1a80b514a9642d6a2bac55e8b3870949ad808d083753c81338585600060405161050b9594939291906109d0565b60405180910390a1505050565b82805461052490610859565b90600052602060002090601f016020900481019282610546576000855561058d565b82601f1061055f57805160ff191683800117855561058d565b8280016001018555821561058d579182015b8281111561058c578251825591602001919060010190610571565b5b50905061059a919061059e565b5090565b5b808211156105b757600081600090555060010161059f565b5090565b600080fd5b600080fd5b6000819050919050565b6105d8816105c5565b81146105e357600080fd5b50565b6000813590506105f5816105cf565b92915050565b600060208284031215610611576106106105bb565b5b600061061f848285016105e6565b91505092915050565b610631816105c5565b82525050565b600081519050919050565b600082825260208201905092915050565b60005b83811015610671578082015181840152602081019050610656565b83811115610680576000848401525b50505050565b6000601f19601f8301169050919050565b60006106a282610637565b6106ac8185610642565b93506106bc818560208601610653565b6106c581610686565b840191505092915050565b600073ffffffffffffffffffffffffffffffffffffffff82169050919050565b60006106fb826106d0565b9050919050565b61070b816106f0565b82525050565b60008115159050919050565b61072681610711565b82525050565b60006080820190506107416000830187610628565b81810360208301526107538186610697565b90506107626040830185610702565b61076f606083018461071d565b95945050505050565b600080fd5b600080fd5b600080fd5b60008083601f84011261079d5761079c610778565b5b8235905067ffffffffffffffff8111156107ba576107b961077d565b5b6020830191508360018202830111156107d6576107d5610782565b5b9250929050565b600080602083850312156107f4576107f36105bb565b5b600083013567ffffffffffffffff811115610812576108116105c0565b5b61081e85828601610787565b92509250509250929050565b7f4e487b7100000000000000000000000000000000000000000000000000000000600052602260045260246000fd5b6000600282049050600182168061087157607f821691505b602082108114156108855761088461082a565b5b50919050565b7f4e4f5420415554484f52495a4544000000000000000000000000000000000000600082015250565b60006108c1600e83610642565b91506108cc8261088b565b602082019050919050565b600060208201905081810360008301526108f0816108b4565b9050919050565b600060408201905061090c6000830185610628565b610919602083018461071d565b9392505050565b60008160601b9050919050565b600061093882610920565b9050919050565b600061094a8261092d565b9050919050565b61096261095d826106f0565b61093f565b82525050565b60006109748285610951565b6014820191506109848284610951565b6014820191508190509392505050565b82818337600083830152505050565b60006109af8385610642565b93506109bc838584610994565b6109c583610686565b840190509392505050565b60006080820190506109e56000830188610628565b6109f26020830187610702565b8181036040830152610a058185876109a3565b9050610a14606083018461071d565b969550505050505056fea26469706673582212203a5bde46217ba8b0a74276d3dda7977a807406a37125318513e3133024253d2c64736f6c63430008090033",
  "linkReferences": {},
  "deployedLinkReferences": {}
}